:020000040800F2
:1000000040060020C1010008BB170008B717000810
:10001000B917000885090008D51C00080000000079
:10002000000000000000000000000000DF170008D2
:100030008709000800000000DD170008E11700082C
:10004000DB010008DB010008DB010008DB01000820
:10005000DB010008DB010008DB010008DB01000810
:10006000DB010008DB010008DB010008DB01000800
:10007000DB010008DB010008DB010008DB010008F0
:10008000DB010008DB010008DB010008DB010008E0
:10009000DB010008DB010008DB010008DB010008D0
:1000A000DB010008DB010008DB010008DB010008C0
:1000B000DB010008DB010008DB010008DB010008B0
:1000C000DB010008DB010008DB010008DB010008A0
:1000D000DB010008DB010008DB010008C91C000887
:1000E000DB010008DB010008DB010008DB01000880
:1000F000DB010008DB010008DB010008DB01000870
:10010000DB010008DB010008DB010008DB0100085F
:10011000DB010008DB010008DB010008DB0100084F
:10012000DB010008DB010008DB010008DB0100083F
:10013000DB010008DB010008DB010008DB0100082F
:10014000DB010008DB010008DB010008DB0100081F
:10015000DB010008DB010008DB010008DB0100080F
:10016000DB010008DB010008DB010008DB010008FF
:10017000DB010008DB010008DB01000800000000D3
:10018000DB010008DB010008DB010008DB010008DF
:10019000DB010008DB010008DB010008DB010008CF
:1001A000DB010008DB010008DB010008DFF80CD0F0
:1001B00000F018FA00480047C52500084006002056
:1001C0000648804706480047FEE7FEE7FEE7FEE7F1
:1001D000FEE7FEE7FEE7FEE7FEE7FEE74D18000854
:1001E000AD01000830B50B46014600202022012455
:1001F00009E021FA02F59D4205D303FA02F5491BF5
:1002000004FA02F52844151EA2F10102F1DC30BD0A
:100210002DE9F05F0546002092469B46884606463B
:10022000814640241BE0284641464746224600F0CE
:10023000FAF953465A46C01A914110D3114618464E
:10024000224600F0E1F92D1A67EB01084F462246DD
:100250000120002100F0D8F917EB00094E41201EC3
:10026000A4F10104DFDC484631462A464346BDE896
:10027000F09F2DE9FE4F804681EA0300C00F0C4637
:10028000009021F0004123F00045B8EB0200A941A5
:1002900005D24046214690461C460B46024623F0B6
:1002A0000040104347D0270DC7F30A00C3F30A519B
:1002B0000290401A019040286BDAC3F3130040F417
:1002C000801B0098924620B10023D2EB030A63EB17
:1002D0000B0B01985946C0F14002504600F094F9CA
:1002E00006460D4650465946019A00F0ACF910EB0F
:1002F00008006141002487EA115284EAE7731A4337
:1003000040D0009A62B3019A012A4FEA075215DCE5
:10031000001B61EB02014FF0004202EA0752CDE9F7
:100320000042001C41F5801132462B4600F0ACF92A
:1003300003B0BDE8F08F40462146F9E7001B61EBB2
:100340000201001C41F5801300185B412018A2F542
:10035000001747EB030140EAD570B6196D4111E073
:100360006D084FEA360645EAC0754FEA0752001B92
:1003700061EB0201001C41F5801149084FEA300091
:100380000019514132462B4603B0BDE8F04F00F052
:100390006CB90098012240000023D0EB020263EB0D
:1003A000E073009821464FEAE074B8EB000061EB7F
:1003B0000401E9E783F000435BE781F0004158E77F
:1003C0002DE9FE4F81EA030404F0004421F00041CE
:1003D00000944FF0000B23F0004350EA01045ED07C
:1003E00052EA03045BD0C3F30A54C1F30A552C4408
:1003F000A4F2F3340194A0FB0254C1F3130141F4BD
:100400008011C3F3130343F4801301FB024400FB88
:10041000034E840A970A44EA815447EA8357A4FBAF
:10042000076802958D0A05FB07854FEA932C04FBAC
:100430000C542705029D4FEA065847EA1637B5EBDC
:1004400008056EEB070C870E920E47EA811742EA09
:100450008312A7FB0201B6EB0B0164EB00042B0D2A
:1004600043EA0C335E1844EB1C50DA465146E7FB76
:100470000201C5F313044FEA0B3343EA14534FEA66
:100480000432019C43EA0603A4F10C040294009C8C
:10049000CDE900B400F0F8F803B0BDE8F08F00201B
:1004A0000146F9E72DE9F04D81EA030404F0004B21
:1004B00021F0004514464FF0000A23F0004150EAB5
:1004C000050220D054EA01021DD0C5F30A570246A6
:1004D000C5F31303C1F31300C1F30A5640F48015AA
:1004E00043F48013A7EB0608101BD64608F2FD382C
:1004F00073EB050002D308F1010801E092185B419B
:10050000B8F1000F03DA00200146BDE8F08D0020AD
:100510004FF48011064684460EE0171B73EB050767
:1005200005D3121B63EB050306434CEA010C490893
:100530004FEA300092185B4150EA0107EDD152EAD0
:10054000030012D082EA040083EA0501084305D0C3
:10055000101BAB4106D20122002306E000224FF01F
:10056000004302E06FF0010253101AEB06004CEB5F
:10057000085110EB0A0041EB0B01BDE8F04D00F013
:1005800074B8C1F30A52C1F3130140F2FF3341F4CE
:1005900080119A4202DA00200146704740F233434C
:1005A0009A42A2F2334202DC524200F03CB800F020
:1005B0002BB8000030B5041E71F1000404DB4FF0CD
:1005C0000044404264EB0101141E73F1000405DB9A
:1005D0001C464FF00043524263EB0403994208BFAC
:1005E000904230BD064C074D06E0E06840F0010344
:1005F00094E8070098471034AC42F6D3FFF7DAFDD1
:10060000FC2700081C280008202A04DB203A00FAF6
:1006100002F1002070479140C2F1200320FA03F359
:10062000194390407047202A04DB203A21FA02F057
:100630000021704721FA02F3D040C2F1200291401C
:10064000084319467047202A06DBCB17203A41FAA7
:1006500002F043EAE07306E041FA02F3D040C2F14F
:100660002002914008431946704710B5141E73F1DB
:10067000000408DA401C41F1000192185B411A4362
:1006800001D120F0010010BD2DE9F04D92469B46AE
:1006900011B1B1FA81F202E0B0FA80F22032904654
:1006A000FFF7B2FF04460F4640EA0A0041EA0B0199
:1006B00053465A46084313D0114653EA010019D055
:1006C000C8F140025046FFF7AEFF05460E465046C1
:1006D00059464246FFF798FF084305D0012004E041
:1006E00020463946BDE8F08D0020054346EAE07615
:1006F0002C4337430A986305E40AA0EB0800002264
:10070000FD0A44EA47540A3002D500200146E9E7D1
:10071000010510196941DDE9084500196941BDE885
:10072000F04DA2E7434910B5D1F8042322F440323A
:10073000C1F80423D1F8042343681A43C1F8042301
:1007400001684A6822F480724A6001684A68036955
:1007500042EA03224A6001684A6822F040724A6015
:1007600001684A6883681A434A6001688A6822F40B
:1007700000628A6001688A68C3681A438A600168F7
:100780008A6822F070628A6001688A68036B1A4383
:100790008A6001688A6822F040528A6001688A682B
:1007A000C36A1A438A6001688A6822F002028A607A
:1007B00001688A68836942EA43028A60416A0029C3
:1007C00001684A680FD042F400624A6001684A68D2
:1007D00022F460424A6001684A68174C836A04EB5D
:1007E00043331A4301E022F400624A600168CA6A96
:1007F00022F47002CA620168CA6A038C0F4C04EBCF
:1008000003531A43CA6201688A6822F400728A603C
:1008100001688A68C36942EA43228A6001688A687B
:1008200022F480628A6001688A68406942EA802016
:10083000886010BD0020014000E0FFFF0000F0FFD5
:100840000948084901604FF4E131416000218160AD
:10085000C160016181610C2141610146002000F00D
:1008600005B80000004800405400002070B50400A6
:100870002E480D4686B0016846D041F04001016027
:10088000016841F04001016028481430016841F0DE
:100890002001016026480226694630F81400CDE99F
:1008A00000060120CDE902062148083030F8140086
:1008B0000490204850F8240000F0D4F91C48694600
:1008C000001D30F81400CDE9000619480C3030F84E
:1008D000140004901748083050F8240000F0C2F9C2
:1008E000FCB147200022052100F00AFBDCB14720C3
:1008F00000F0FBFA0F48083850F82400286028461A
:1009000000F0C1FE06B070BD41F002010160016857
:1009100041F00201016005481030016841F4802176
:10092000B7E72720DEE72720E2E700003038024063
:10093000D42700080C00002070B50F49044686B08B
:10094000086840F4807008600C4E0D4D694636F81A
:10095000140000900120019002900220039055F8AD
:10096000240000F07FF936F8141055F82400012215
:1009700000F08AFA06B070BD30380240E427000863
:100980001C000020FEE7704730B590F83C20012A9B
:1009900019D0012280F83C200A6807230468092A3C
:1009A00013D9E5680A3A02EB420293409D43E560A1
:1009B0000A788B680A3A02EB420293400268D468D4
:1009C0002343D36010E0022030BD256902EB4202D0
:1009D00093409D4325610A788B6802EB4202934065
:1009E00002681469234313614A681F23072A12D23D
:1009F0000468656B521E02EB820293409D4365635F
:100A00000A790B68521E02EB820293400268546B13
:100A10002343536325E004680D2A11D2256BD21FAE
:100A200002EB820293409D4325630B790A68DB1F2A
:100A300003EB83039A4003681C6B22431A6310E0A4
:100A4000E56A0D3A02EB820293409D43E5620B7921
:100A50000A680D3B03EB83039A400368DC6A224378
:100A6000DA62104A0368934208D10B68122B05D151
:100A7000D2F8043343F48003C2F80433036893428A
:100A80000AD10968102901D0112905D1D2F804131F
:100A900041F40001C2F80413002180F83C1008461C
:100AA00030BD0000002001400068C06C704710B5E8
:100AB000040003D094F83D0010B104E0012010BD03
:100AC000204600F00FF8022084F83D002046FFF792
:100AD00029FE00202064012184F83D1084F83C00A8
:100AE00010BD00002DE9F0430646234D0068214962
:100AF000214C143D0327DFF8849085B04FF00008A7
:100B000088420ED1206840F480602060286840F060
:100B10000400286002208DE881016946484600F003
:100B2000A1F81749306888420ED1206840F400705F
:100B30002060286840F00400286010208DE88101C2
:100B40006946484600F08EF80E49306888420ED15A
:100B5000206840F480702060286840F0040028601D
:100B600020208DE881016946484600F07BF805B0F9
:100B7000BDE8F083002201404438024000080240F2
:100B8000002101400020014070B50D46044600F0F0
:100B900081F946190DE0681C0BD000F07BF9B042DA
:100BA00007D3032084F83D00002084F83C00032094
:100BB00070BD206800688007EDD594F83D002528B9
:100BC00004D0152084F83D00002070BD3520F9E7E1
:100BD00090F83C200021012A0FD0012280F83C200F
:100BE00090F83D20222A0AD05FF0120280F83D20C2
:100BF00002689368DB0704D00EE0022070473222BF
:100C0000F4E7936843F0010393604FF4077200BF69
:100C1000491C89B29142FAD90B4AD2F80413C90689
:100C200005D00168914209D1C26A1AB106E0C16AD1
:100C300021B901688A6842F080428A60002180F808
:100C40003C1008467047000000200140044901B5EF
:100C50000868009A10440A688242FCD308BD00006C
:100C6000400000202DE9F04F0022DFF8E8E10125E7
:100C70004FF0030B4FF00F0A0B6805FA02F4234004
:100C8000A3427DD14E68022E01D0122E14D15607F8
:100C90000F694FEAD66C07FA0CF9D60800EB860606
:100CA000376A0AFA0CF827EA08073762D6F820C034
:100CB0004CEA090CC6F820C0D0F800C056000BFA68
:100CC00006F72CEA070CC0F800C091F804C0D0F871
:100CD00000800CF0030C0CFA06FC4CEA080CC0F87F
:100CE00000C0D1F804C0BCF1010F08D0BCF1020F64
:100CF00005D0BCF1110F02D0BCF1120F1FD1D0F8FA
:100D000008C02CEA070CC0F808C0D1F80CC0D0F815
:100D100008800CFA06FC4CEA080CC0F808C0D0F8B1
:100D200004C02CEA040CC0F804C0D0F804C00C794C
:100D3000C4F3001494404CEA040CC0F804C0C46826
:100D4000BC43C4608C68B440C6683443C4604C681B
:100D5000E40079D5404C266846F480462660940726
:100D6000270F3E4C22F0030C64440AFA07F6D4F82D
:100D700008C82CEA060CC4F808C8394EB04200E096
:100D800062E001D100262DE0364EB04201D10126AD
:100D900028E0354EB04201D1022623E0334EB04266
:100DA00001D103261EE0324EB04201D1042619E0E3
:100DB000304EB04201D1052614E02F4EB04201D191
:100DC00006260FE02D4EB04201D107260AE02C4E38
:100DD000B04201D1082605E02A4EB04201D10926D1
:100DE00000E00A26BE40D4F808783E43C4F80868FC
:100DF000DEF8006074469E43CEF80060154E361D46
:100E000037689F4337604F68FF0302D527681F4349
:100E100027604C68A40302D534681C4334600D4C31
:100E2000083426689E432660261D37689F43376036
:100E30004F68FF0202D527681F4327604C68A40251
:100E400002D534681C433460521C102AFFF414AFDE
:100E5000BDE8F08F003C01404438024000300140C2
:100E6000000002400004024000080240000C024062
:100E7000001002400014024000180240001C024012
:100E800000200240002402400AB1018370474183E0
:100E900070470000014800687047000040000020D3
:100EA00002480168491C01607047000040000020B2
:100EB0000C4810B5016841F400710160016841F40B
:100EC00080610160016841F4807101604FF47A50E3
:100ED00000F038FB032000F033F800F005F80020A4
:100EE00010BD0000003C0240704700F01F020121CD
:100EF00091404009800000F1E020C0F800117047E7
:100F0000F0B40E4B1B680C46C3F30223C3F1070574
:100F1000042D00D90425191D072901D2002300E062
:100F2000DB1E012606FA05F1491E214099409E402C
:100F3000761E16403143F0BC00F040BC0CED00E0E2
:100F4000064900F0070208684FF6FF03184040EA20
:100F50000220034A10430860704700000CED00E0D7
:100F60000000FA052DE9F047DFF8A09105460E468E
:100F7000D9F80000664C00F00F016548083406F00F
:100F8000FF0841F28837B14243D289F80080D9F88E
:100F9000001001F00F01B14275D12978C90724D0A2
:100FA0006968012913D00068022913D0800700283E
:100FB00076DA206820F0030008432060FFF76AFF1C
:100FC000C619686801280BD0022813D01CE00068FD
:100FD0008003ECE78001EAE7FFF75CFFB0424FD205
:100FE0002068C0F381000128F6D15BE0FFF752FFD3
:100FF000B04245D22068C0F381000228F6D151E00A
:10100000FFF748FFB0423BD2206810F00C0FF7D139
:1010100048E02978C9073BD06968012913D00068E6
:10102000022913D0800700283ADA206820F0030054
:1010300008432060FFF72EFF0744686801280BD0A3
:10104000022813D020E000688003ECE78001EAE783
:10105000FFF720FFB84213D22068C0F381000128B7
:10106000F6D115E0FFF716FFB84209D22068C0F3A9
:1010700081000228F6D10BE0FFF70CFFB84203D342
:101080000320BDE8F0870BE0206810F00C0FF3D1CF
:1010900089F80080D9F8000000F00F00B04201D0BC
:1010A0000120EEE72878800705D52068A96820F0A0
:1010B000F000084320602878400705D52068E968DB
:1010C00020F4E050084320602878000706D5206807
:1010D000296920F4604040EAC100206000F01CF85B
:1010E0004FF47A71B0FBF1F0401EB0F1807F0AD26C
:1010F0004FF0E0214861074AF02082F8140D0020EB
:101100008861072008610020BBE70000003C024026
:10111000003802400FE000E000B500F043F8084955
:101120000968F02292FAA2F201F0F001B2FA82F21A
:10113000D140044A515CC8400349086000BD00002A
:1011400008380240EC2700082C00002000B5FFF70B
:10115000E3FF074909684FF4E05292FAA2F201F462
:10116000E051B2FA82F2D140024A515CC84000BD5F
:1011700008380240EC27000800B5FFF7CDFF07490B
:1011800009684FF4604292FAA2F201F46041B2FAA7
:1011900082F2D140024A515CC84000BD083802408A
:1011A000EC27000830B51D48006810F00C011C4801
:1011B0001AD01C4C042916D0082915D11749091F2B
:1011C0000A6802F03F030A6802F480054FF48002C7
:1011D00092FAA2F2B2FA82F2D54047F6C07204D077
:1011E000B4FBF3F003E0204630BDB0FBF3F00B6836
:1011F0000968134092FAA2F2B2FA82F2D34058433D
:101200004FF4403292FAA2F201F44031B2FA82F283
:10121000D140491C4900B0FBF1F030BD0838024014
:101220000024F40040787D012DE9F84F0446007851
:10123000DFF8FC92BF4DC0074FF0000649D0D9F847
:1012400000104846C1F38101012908D00068C0F3AD
:10125000810002280AD1281D0068400206D52868AE
:10126000800336D56068012874D132E0DFF8C4A26B
:101270000AF1020A8AF80060FFF70CFE41F2883793
:1012800000EB070804E000BFFFF704FE40457BD2F7
:1012900028688003F8D420798AF800006068012863
:1012A00003D0FFF7F7FD074410E0FFF7F3FD074415
:1012B00004E000BFFFF7EEFDB842E8D228688003E3
:1012C000F8D506E0FFF7E6FDB842E0D228688003D3
:1012D000F8D42078984F80074FF0010B43D5D9F808
:1012E0000010484611F00C0F09D00068C0F38100CF
:1012F00002280BD18E48001F0068400206D42868DF
:10130000800730D5E0680128AED12CE0E068D8B184
:10131000C7F800B0FFF7BEFD00F1640804E000BFAD
:10132000FFF7B8FD4045B2D228688007F8D5286895
:10133000F82292FAA2F22169B2FA82F220F0F800C1
:101340009140084328600EE03E60FFF7A3FD00F1E6
:10135000640805E0EAE000BFFFF79CFD404513D2BA
:1013600028688007F8D42078000727D5DFF8C0A1C7
:10137000724861690AF16C0A89B1C0F800B0FFF7E0
:1013800089FD00F1640805E07EE000BFFFF782FD03
:10139000404579D2DAF800008007F7D50EE0066004
:1013A000FFF778FD00F1640804E000BFFFF772FD6D
:1013B000404569D2DAF800008007F7D4207840076A
:1013C00052D55B483830016841F080510160DFF848
:1013D00070A1DAF8001041F48071CAF80010FFF72C
:1013E00059FD00F1640803E0FFF754FD40454BD27E
:1013F000DAF80000C005F7D5DFF8348108F1680895
:1014000088F80060FFF746FD41F2883A50440090AA
:1014100005E000BFFFF73EFD009988427ED2D8F874
:1014200000008007F6D4207A88F80000A068012820
:1014300003D0FFF72FFD824412E0FFF72BFD82441B
:1014400004E000BFFFF726FD504567D2D8F8000042
:101450008007F7D508E000BFFFF71CFD50455DD2BF
:10146000D8F800008007F7D4A069E8B3D9F80010D5
:10147000C1F38101022959D002283E6605D0FFF749
:1014800009FD00F164044CE048E0FFF703FD00F1C2
:10149000640603E0FFF7FEFCB0423FD228688001FB
:1014A000F8D4D4E90710084347F6C07292FAA2F2C2
:1014B000616AB2FA82F29140A26A4FF0FF3303EB05
:1014C00052024FF4403393FAA3F3B3FA83F39A40F2
:1014D000114308434FF0706292FAA2F2E16AB2FA45
:1014E00082F29140084300E01EE040F000511048B5
:1014F000001F0160C7F860B0FFF7CCFC00F1640486
:1015000004E000BFFFF7C6FCA04207D228688001B4
:10151000F8D509E0FFF7BEFCA04202D30320BDE8E6
:10152000F88F28688001F5D40020F8E70120F6E75D
:10153000083802400038024000004742800E47420F
:101540000070004010B5401EB0F1807F01D3012033
:1015500010BD4FF0E02460610F21601700F02EF9FC
:101560000020A06107202061002010BD704710B549
:1015700004460068016811F0010FC16801F4807130
:101580000AD049B1016821F00101016094F83A00E4
:1015900040F0010084F83A00206801684269C1F314
:1015A000400102F0010251B14AB1016821F002018B
:1015B000016094F83A0040F0040084F83A00206892
:1015C00001684269C1F3800102F0010251B14AB1E0
:1015D000016821F00401016094F83A0040F0020033
:1015E00084F83A00206801684269C1F3C00102F042
:1015F000010251B14AB1016821F00801016094F87B
:101600003A0040F0080084F83A0021680868C96888
:10161000C0F3401001F0200140B139B1204600F084
:1016200097F92068016821F02001016021680868AD
:10163000C968C0F3001001F0100140B139B1204673
:1016400000F02EF92068016821F010010160216886
:101650000868C968C0F3801001F0400140B139B199
:10166000204600F09BFA2068016821F040010160EB
:1016700094F83A00002805D0012084F8390020466B
:10168000FFF774FF10BD10B5040003D094F83900C3
:1016900010B104E0012010BD204600F022F8022025
:1016A00084F839002068C16821F40051C1602046E7
:1016B00000F0B8F92068016921F4904101612068C7
:1016C000416921F02A0141612068C16841F400515B
:1016D000C160002084F83A00012084F8390000201D
:1016E00010BD7047704700002DE9F047044690F8A0
:1016F000390099460D46012801D0222858D12DB332
:1017000022B394F83800012852D0012684F83860BA
:10171000002784F83A7094F83900222819D0122052
:1017200084F83900A284E2844FF48058E08C4B4660
:10173000401EE084A0684FF0000240454FF0800159
:10174000204613D100F07BFA08BB04E00120BDE87D
:10175000F0873220E4E728882168C0F30800486059
:10176000206908B16D1C08E0AD1C06E000F067FAC6
:1017700068B9216815F8010B4860E08C0028D5D1C4
:101780004B4600224021204600F059FA08B10320C0
:10179000DDE794F83900322806D084F8396000BFBC
:1017A00084F838700020D2E7222084F83900F7E767
:1017B0000220CCE77047FEE7FEE770470907090EF5
:1017C000002806DA00F00F0000F1E02080F8141D78
:1017D000704700F1E02080F80014704770477047B0
:1017E000FFF75EBB174810B5016892B041F0805119
:1017F00001601548016821F4404141F40041016055
:1018000001200090019002248005CDE906401920B6
:1018100008904FF49070CDE9090406200B906846BB
:10182000FFF702FD0F20CDE90C0400200E904FF4CD
:10183000A0500F90E002109004210CA8FFF792FB3B
:1018400012B010BD403802400070004010480168DE
:1018500041F4700101600F48016841F0010101602D
:101860000C4A00210832116002680B4B1A400260DA
:10187000031D0A4A1A60026822F4802202600548A9
:101880000C3001600249580680390860704700003A
:1018900088ED00E000380240FFFFF6FE1030002423
:1018A00010B590F839300022222B05D0322B03D00E
:1018B00080F83820002010BD90F83830012B34D04B
:1018C000012380F838308468B4F5805F2FD0046934
:1018D00084B30468646804F07F040C80C2850168E6
:1018E0000C68A406FCD4CC6824F02004CC60016809
:1018F0000C68E406FCD4CC6824F01004CC6090F8AA
:10190000391032291FD00168CC6824F48074CC606F
:1019100001684C6924F001044C6180F8393000BF43
:1019200080F83820FFF7DEFEC4E7022010BD04690E
:10193000816A1CB104686468E4B2CEE70468646834
:10194000C4F30804C9E7122180F83910E8E7000061
:1019500010B590F83910222901D0322960D190F8C1
:10196000381001295CD0012280F838208168B1F557
:10197000805F1AD001690029016828D0496801F008
:101980007F04816A4B1C83620C700168CB6843F052
:101990001003CB60C18D4FF00003491E0904090CF0
:1019A000C1851AD080F8383034E00369816A002B91
:1019B00003685B6805D0DBB20B80816A491C8162D9
:1019C000E3E7C3F308030B80816A891CF7E74B68E0
:1019D000816A4C1C84620B70D7E701680C68A4060E
:1019E000FCD4CC6824F02004CC6090F83910322963
:1019F00012D00168CC6824F48074CC6001684C6912
:101A000024F001044C6180F8392000BF80F83830A0
:101A1000FFF768FE002010BD122180F83910F5E7AD
:101A2000022010BD2DE9F04101680446086920F448
:101A30004052E068104308612268D06849F20C61A6
:101A400088432369A168E569194363692B431943F6
:101A50000143D1602168486920F44072A0691043B5
:101A60004861E26964263225B2F5004F49494A4887
:101A700022681DD0824201D08A426AD1FFF77CFBE6
:101A800000EBC00101EB00106168B0468900B0FBBB
:101A9000F1F1B1FBF8F6FFF76FFB00EBC00101EBD2
:101AA000001061688900B0FBF1F7FFF765FB69E0A2
:101AB000824201D08A4219D1FFF75EFB00EBC001E0
:101AC00001EB00106168B0464900B0FBF1F1B1FBD9
:101AD000F8F6FFF751FB00EBC00101EB0010616865
:101AE0004900B0FBF1F7FFF747FB18E0FFF72EFBCB
:101AF00000EBC00101EB00106168B0464900B0FB8B
:101B0000F1F1B1FBF8F6FFF721FB00EBC00101EBAF
:101B1000001061684900B0FBF1F7FFF717FB00EB1D
:101B2000C00101EB001061685FEA4101B0FBF1F117
:101B3000B1FBF8F06FF01801484307EB800005EBAC
:101B40000011B1FBF8F0216866F31F108860BDE852
:101B5000F081FFF7FBFA00EBC00101EB00106168B8
:101B6000B0468900B0FBF1F1B1FBF8F6FFF7EEFAF1
:101B700000EBC00101EB001061688900B0FBF1F7D8
:101B8000FFF7E4FA00EBC00101EB00106168890087
:101B9000CCE70000001401400010014010B590F89F
:101BA0003910122901D0322947D190F83810012973
:101BB00043D0012280F838208168B1F5805F016A46
:101BC00010D04B1C0362036809785960C18C491E10
:101BD0000B041B0CC3844FF0000111D080F83810A7
:101BE000002010BD09880368C1F30801596001692C
:101BF0000029016A02D0491C0162E7E7891CFBE762
:101C00000368DC6824F04004DC6090F83930322B43
:101C100011D00368DC6824F48074DC6003685C69BC
:101C200024F00104C3F8144080F8392080F83810FB
:101C3000FFF7C0FDD4E72222F6E7022010BD2DE910
:101C4000F0471D4690460E460446FFF723F9471914
:101C50005FEA08004FF000094FF0010806D02CE0C1
:101C6000681C03D0FFF716F9B8420BD22068006851
:101C700036EA0000F4D125E0681C1ED0FFF70AF90F
:101C8000B8421AD32068C16821F08001C160206881
:101C9000C16821F02001C1602068C16821F4807111
:101CA000C1602068416921F00101416184F83980F7
:101CB00084F838900320BDE8F0872068006836EA91
:101CC0000000D9D00020F6E70148FFF750BC000023
:101CD00054000020FEE700000FB4054B10B503A927
:101CE000044A029800F0CAF810BC5DF814FB00002A
:101CF000AD2500085000002002E008C8121F08C1EE
:101D0000002AFAD170477047002001E001C1121F7C
:101D1000002AFBD1704700002DE9FF5FDDE90220BA
:101D2000010DDDF838B0024318D044F61050A1F28E
:101D3000FF3141430D140F98012820D0A5EB0B0073
:101D4000401C5FEA000A4FF00004474EDFF81C9188
:101D5000A046504616D5CAF1000728E00F98012486
:101D600043A2012808D0002100980F9BC0E9002160
:101D7000C0E90243BDE8FF9F6FEA0B01F4E7CBF136
:101D80000000DEE7074612E0F80707D02246334698
:101D900040464946FEF714FB8046894622463346B4
:101DA00010461946FEF70CFB04460E467F10002F26
:101DB000EAD1DDE90201BAF1000F42464B4602DAF0
:101DC000FEF7FEFA01E0FEF76DFB04460E46002228
:101DD000284BFEF7EFFB03D84FF0FF30014607E03A
:101DE0000022254B20463146FEF743FAFEF7C9FB99
:101DF000102409E0002C0ADB0A220023FEF708FA6F
:101E0000019B30321A55641E50EA0102F2D1641C63
:101E1000019AC4F1110314440F9A012A03D001223C
:101E200008430DD10AE0084304D000204FF0110B05
:101E30000F9080E7A3EB0B056D1E0DE05B4504DD05
:101E40004FF0000205F1010504E003DA4FF0000253
:101E5000A5F10105002AECD000980F99C0E90231E4
:101E6000C0E9004586E70000000024400000F03F84
:101E7000300000000000F0430000E03F2DE9FF4F7C
:101E800095B09B468946064600250FE2252877D166
:101E900000242746F84A0121059400E0044316F87F
:101EA000013F203B01FA03F01042F7D130782A2895
:101EB00011D06FF02F033078A0F13002092A16D824
:101EC000059A44F0020402EB820203EB4202104442
:101ED000761C0590EFE759F8042B0592002A03DAE7
:101EE000504244F40054059044F00204761C3078CB
:101EF0002E2816D116F8010F44F004042A280DD01C
:101F00006FF02F023078A0F13003092B09D807EBCE
:101F1000870302EB4303C718761CF3E759F8047BE9
:101F2000761C30786C280FD006DC4C2817D0682837
:101F30000DD06A2814D104E0742810D07A280FD16B
:101F40000DE044F400140AE044F4801401E044F489
:101F500040147278824202D104F58014761C761CFB
:101F6000307866280BD013DC582877D009DC00289D
:101F700075D04528F6D04628F4D047281AD19DE1DF
:101F800018E0632835D0642879D0652812D195E10E
:101F9000702873D008DC6728F1D069286FD06E28CC
:101FA0000DD06F2806D1B5E073282CD0752875D0D8
:101FB000782874D05A46179990476D1C75E1C4F380
:101FC0000250022809D003280DD0D9F800100428A7
:101FD0000DD00D6009F1040967E1D9F80010EA1786
:101FE000C1E90052F6E7D9F800100D80F2E70D7054
:101FF000F0E719F8041B8DF8001000208DF801009F
:10200000EA46012003E059F804AB4FF0FF306107C6
:102010004FF0000102D40DE008F101018846B942F9
:102020000FDA8045F8DB1AF808100029F4D108E02F
:1020300008F1010188468142FADB1AF808100029EC
:10204000F6D105985B46A0EB080721463846179A5B
:1020500000F094FA284400EB080507E04DE029E180
:102060000DE01AF8010B5A4617999047B8F101088C
:10207000F7D25B4621463846179A13E142E00A221E
:102080000092C4F302524FF0000A022A08D059F815
:1020900004CB032A4FEAEC710AD00DE029E02AE0D4
:1020A00009F1070121F00702F2E802C1914609E0B7
:1020B0000FFA8CFC4FEAEC71042A03D14FFA8CFC26
:1020C0004FEAEC71002907DA0A460021DCF1000C26
:1020D00061EB02012D2202E0220504D52B228DF8AE
:1020E0000420012203E0E20701D02022F7E7904616
:1020F00059E00A2102E010220DE010214FF0000A01
:1021000000910BE010224FF0000A44F0040408276D
:10211000009203E008224FF0000A0092C4F302523A
:10212000022A05D059F804CB0021032A08D009E07F
:1021300009F1070121F00702F2E802C1914605E02A
:102140001FFA8CFC042A01D10CF0FF0C4FF00008A0
:10215000220728D5702806D0009B83F0100353EA8D
:102160000A0305D00EE040228DF80420012208E089
:102170005CEA010206D030228DF804208DF80500BB
:1021800002229046009B83F0080353EA0A030AD117
:102190005CEA010201D1620705D530228DF80420E6
:1021A0004FF001087F1E582804D034A003900EA8D9
:1021B00002900DE036A0F9E753466046009AFEF71C
:1021C00027F884460398825C0298401E02900270B1
:1021D0005CEA0100F0D1029806A9081A00F1200A71
:1021E000600702D524F4803400E00127574502DD62
:1021F000A7EB0A0000E0002000EB0A010090059820
:102200004144401A0590E00306D45B462146179AE4
:10221000059800F0B3F90544002706E001A85A46E6
:10222000C05D179990476D1C7F1C4745F6DBE003A6
:102230000CD55B462146179A059800F09FF9054496
:1022400004E030205A46179990476D1C0099481EAB
:1022500000900029F5DC08E0029802995A460078BF
:10226000491C0291179990476D1CBAF10001AAF11F
:10227000010AF1DC65E10000092801003031323348
:1022800034353637383961626364656600000000B2
:10229000303132333435363738394142434445469C
:1022A0000000000000F058F90544761C3078002842
:1022B0007FF4ECAD19B02846BDE8F08F620700D47A
:1022C000062709F1070222F0070CFCE80223E14689
:1022D00003F000485FEA080C02D00FF2702C0DE00A
:1022E0005FEA045C02D50FF2682C07E05FEAC47C69
:1022F00002D00FF2602C01E0AFF2700C4FF0FF380B
:1023000023F00043CDF850C065280CD006DC4528EA
:1023100009D046281DD047283DD13DE0662818D079
:1023200067287ED138E00021112F01DB112000E069
:10233000781CCDE9000106A90EA8FFF7EDFCDDE948
:102340000F010E9A03910021009207F1010A0491F6
:102350004DE04FF000400097CDE9011006A90EA80E
:10236000FFF7DAFCDDE90F0203920E9B11990022C0
:10237000DDF80CA00093049211B9791C00EB010A5E
:10238000B7EB0A0004D4C0F1FF3007F1010A049052
:10239000AAEB0700019044E0012F00DA0127002199
:1023A000112F01DD112000E03846CDE9000106A91A
:1023B0000EA8FFF7B1FCDDE90F010E9A0391002191
:1023C00004910092BA4621070CD40399514500DAD2
:1023D0008A46BAF1010F05DD009AAAF10101515CAC
:1023E000302908D0B84202DA10F1040F06DA0121D0
:1023F000CDE9011015E0AAF10101E9E7002805DCAB
:10240000049901440491AAEB000102E0411C5145EA
:1024100000DD8A460499401A401C01904FF00040AC
:102420000290200704D40198504501DBCDF80480C8
:1024300000208DF84F0002980DF14F07B0F1004FCA
:1024400025D02B200E9002984FF0020800280CDABD
:10245000404202902D200E9007E00A210298FDF7DD
:10246000C1FE3031029007F8011DB8F10001A8F15A
:102470000108F2DC02980028EFD1791E0E9808704E
:10248000307800F0200040F0450007F8020D12A857
:10249000C01B00F107081498007800B1012000EB80
:1024A0000A01019801EBE07105984144401A401E71
:1024B0000590E00306D45B462146179A059800F084
:1024C0005DF805441498007818B15A46179990475A
:1024D0006D1CE00324D55B462146179A059800F051
:1024E0004DF805441CE00498002807DBDDE90301F2
:1024F000884203DD0098405C179901E0179930206D
:102500005A469047049805F10105401C0490019833
:10251000401E019004D12E205A46179990476D1CF9
:10252000BAF10001AAF1010ADDDC05E017F8010BA0
:102530005A46179990476D1CB8F10001A8F101089F
:10254000F4DC5B462146179A0598ABE62D000000A7
:102550002B000000200000002DE9F041044600257A
:102560001E461746880404D405E039462020B047AB
:102570006D1C641EF9D52846BDE8F0812DE9F041B7
:10258000044600251E469046C80301D5302700E0CA
:102590002027880404D505E041463846B0476D1C25
:1025A000641EF9D52846BDE8F081000013B54FF64A
:1025B000FF73012269460248FFF796F800981CBD98
:1025C00054000020FEF774FCFFF70CF90220FEF720
:1025D000B3F9FEF735F9594857490024C0E900140A
:1025E00084600461846144628462C462046301257E
:1025F000C460C0E907454461FEF759FA4F480B2112
:10260000CC300726C46080E862000146CC38FEF773
:10261000BBF94A484A494430C0E900148460046167
:10262000846144628462C4620463C460C0E9074593
:102630004461FEF73CFA41480E21DC30C46080E87A
:10264000620001469838FEF79FF93C483D498830C2
:10265000C0E9001484600461846144628462C462DD
:102660000463C460C0E907454461FEF720FA3348BB
:102670000F21EC30C46080E8620001466438FEF748
:1026800083F94FF4FA6564262F4CAF102FA0FFF7A3
:1026900023FB2A48FEF79CFA2848FEF705FAA060BB
:1026A000FF212648FEF770FAA068A84201D9A5606C
:1026B00003E0A068642800D2A660A16833A0FFF7F9
:1026C0000BFB1E484430FEF783FA1C484430FEF7EB
:1026D000EBF920601948FF214430FEF755FA2068D5
:1026E000A84201D9256003E02068642800D2266052
:1026F00021682CA0FFF7F0FA10488830FEF768FA3E
:102700000E488830FEF7D0F960600C48FF21883011
:10271000FEF73AFA6068A84201D9656003E0606894
:10272000642800D26660616824A0FFF7D5FA3846B5
:10273000FEF78CFAAAE700000022014040010020C9
:102740000021014000200140440000200D0A546592
:10275000616D204E756D626572203A203030202008
:102760002053747564656E74204E756D62657220B9
:102770003A20323031393030303030202F20203282
:102780003031393030303030090000000D0A495204
:102790002073656E736F72204C656674203D202532
:1027A000640000000D0A49522073656E736F722039
:1027B0005269676874203D20256400000D0A495263
:1027C0002073656E736F7220426F74746F6D203D5D
:1027D00020256400000400400008000207000800F3
:1027E00007000800000100020004000800000000CB
:1027F0000102030401020304060708091C2800085B
:102800000000002054000000F81C00087028000898
:1028100054000020EC050000081D00080000000026
:10282000004800400014014000040240001802402B
:102830000004024000180240002002400020024034
:1028400000200240002002400024F40000000000AC
:102850000000000001020304060708090000000050
:102860000000000000000000000000000000000068
:04000005080001AD41
:00000001FF
