:020000040800F2
:1000000048090020710200088F1800088B180008AA
:100010008D180008E9040008E51D00080000000034
:10002000000000000000000000000000C101000806
:10003000EB0400080000000005020008B1180008E9
:100040008B0200088B0200088B0200088B0200085C
:100050008B0200088B0200088B0200088B0200084C
:100060008B020008F5040008FB0400088B0200085E
:100070008B0200088B0200088B0200088B0200082C
:100080008B0200088B0200088B0200088B0200081C
:100090008B0200088B0200088B0200080105000893
:1000A0008B0200088B0200088B0200088B020008FC
:1000B0008B020008711900088B0200088B020008EF
:1000C0008B0200088B0200088B0200088B020008DC
:1000D0008B0200088B0200088B0200088B020008CC
:1000E000ED0400088B0200088B0200088B02000858
:1000F0008B0200088B0200088B0200088B020008AC
:100100008B0200088B0200088B0200088B0200089B
:100110008B0200088B0200088B0200088B0200088B
:100120008B0200088B0200088B0200088B0200087B
:100130008B0200088B0200088B0200088B0200086B
:100140008B0200088B0200088B0200088B0200085B
:100150008B0200088B0200088B0200088B0200084B
:100160008B0200088B0200088B0200088B0200083B
:100170008B0200088B0200088B02000800000000C0
:100180008B0200088B0200088B0200088B0200081B
:100190008B0200088B0200088B0200088B0200080B
:1001A0008B0200088B0200088B020008DFF80CD0DD
:1001B00000F070F800480047051E000848090020BC
:1001C000234B19680868B0E8F04F80F309884FF0B6
:1001D000000080F3118870470000000003480068A9
:1001E000006880F3088862B600DF00BF08ED00E019
:1001F000DFF80C00016841F470010160704700BF36
:1002000088ED00E0EFF30980114B1A681EF0100F23
:1002100008BF20ED108A20E9F04F106008B44FF0BD
:10022000500080F3118801F057FF4FF0000080F379
:10023000118808BC19680868B0E8F04F1EF0100F6C
:1002400008BFB0EC108A80F30988704700BF00BF78
:1002500080000020EFF311804FF0500181F31188EE
:10026000704780F311887047EFF3058070470000F6
:100270000648804706480047FEE7FEE7FEE7FEE740
:10028000FEE7FEE7FEE7FEE7FEE7FEE71D190008D2
:10029000AD010008064C074D06E0E06840F00103A0
:1002A00094E8070098471034AC42F6D3FFF782FF7A
:1002B0005022000870220008434910B5D1F80423E9
:1002C00022F44032C1F80423D1F8042343681A43CE
:1002D000C1F8042301684A6822F480724A60016808
:1002E0004A68036942EA03224A6001684A6822F0C8
:1002F00040724A6001684A6883681A434A6001682C
:100300008A6822F400628A6001688A68C3681A43B6
:100310008A6001688A6822F070628A6001688A686F
:10032000036B1A438A6001688A6822F040528A602F
:1003300001688A68C36A1A438A6001688A6822F081
:1003400002028A6001688A68836942EA43028A601D
:10035000416A002901684A680FD042F400624A608D
:1003600001684A6822F460424A6001684A68174C92
:10037000836A04EB43331A4301E022F400624A60CB
:100380000168CA6A22F47002CA620168CA6A038CF0
:100390000F4C04EB03531A43CA6201688A6822F4C3
:1003A00000728A6001688A68C36942EA43228A60EF
:1003B00001688A6822F480628A6001688A684069FC
:1003C00042EA8020886010BD0020014000E0FFFF6D
:1003D0000000F0FF0948084901604FF4E131416035
:1003E00000218160C160016181610C214161014690
:1003F000002000F005B8000000480040B8000020D0
:1004000070B504002E480D4686B0016846D041F014
:1004100040010160016841F040010160284814304A
:10042000016841F02001016026480226694630F843
:100430001400CDE900060120CDE90206214808306C
:1004400030F814000490204850F8240000F0C8F957
:100450001C486946001D30F81400CDE90006194813
:100460000C3030F8140004901748083050F824007D
:1004700000F0B6F9FCB147200022052100F0FAFA9D
:10048000DCB1472000F0EBFA0F48083850F82400A0
:100490002860284601F0CAF906B070BD41F002019B
:1004A0000160016841F002010160054810300168F7
:1004B00041F48021B7E72720DEE72720E2E70000AC
:1004C00030380240282200080C0000200449054A68
:1004D00031F8101052F82000002200F098BA000005
:1004E000382200081C000020FEE770474FF400404F
:1004F00000F06AB9082000F067B9102000F064B974
:10050000202000F061B9000070B5164C86B020685C
:1005100040F001002060144D00264FF400408DE8AB
:1005200061006946114800F05BF900220221282091
:1005300000F0A0FA282000F092FA206840F00200B3
:10054000206038208DE861006946094800F048F9CC
:10055000002202210A2000F08DFA0A2000F07FFA22
:1005600006B070BD3038024000001110000002409B
:100570000004024030B590F83C20012A19D0012235
:1005800080F83C200A6807230468092A13D9E56823
:100590000A3A02EB420293409D43E5600A788B6879
:1005A0000A3A02EB420293400268D4682343D360C4
:1005B00010E0022030BD256902EB420293409D43CA
:1005C00025610A788B6802EB420293400268146945
:1005D000234313614A681F23072A12D20468656BFC
:1005E000521E02EB820293409D4365630A790B68B9
:1005F000521E02EB820293400268546B2343536302
:1006000025E004680D2A11D2256BD21F02EB82026D
:1006100093409D4325630B790A68DB1F03EB83033B
:100620009A4003681C6B22431A6310E0E56A0D3A96
:1006300002EB820293409D43E5620B790A680D3B11
:1006400003EB83039A400368DC6A2243DA62104AB0
:100650000368934208D10B68122B05D1D2F80433FA
:1006600043F48003C2F80433036893420AD1096853
:10067000102901D0112905D1D2F8041341F4000149
:10068000C2F80413002180F83C10084630BD000079
:100690000020014010B5040003D094F83D0010B1D3
:1006A00004E0012010BD204600F00EF8022084F87E
:1006B0003D002046FFF700FE00202064012184F861
:1006C0003D1084F83C0010BD2DE9F0430646234D53
:1006D00000682149214C143D0327DFF8849085B040
:1006E0004FF0000888420ED1206840F480602060FE
:1006F000286840F00400286002208DE881016946E6
:10070000484600F06DF81749306888420ED12068DD
:1007100040F400702060286840F004002860102039
:100720008DE881016946484600F05AF80E49306864
:1007300088420ED1206840F480702060286840F024
:100740000400286020208DE881016946484600F0B9
:1007500047F805B0BDE8F08300220140443802406C
:1007600000080240002101400020014070B5144AF9
:100770000325144C102812D0B0F5004F0BD10821DE
:10078000104600F03FF9207030B1012803D1608895
:10079000401E6080257070BD6088401CF9E72021F4
:1007A000104600F02FF9607030B10128F3D1A08815
:1007B000401EA080657070BDA088401CF9E7000055
:1007C0000004024044000020044910B50A680242B7
:1007D00002D00860FFF7CAFF10BD0000143C0140C2
:1007E0002DE9F04F0022DFF8E8E101254FF0030B7F
:1007F0004FF00F0A0B6805FA02F42340A3427DD1A3
:100800004E68022E01D0122E14D156070F694FEAFE
:10081000D66C07FA0CF9D60800EB8606376A0AFA96
:100820000CF827EA08073762D6F820C04CEA090C12
:10083000C6F820C0D0F800C056000BFA06F72CEA24
:10084000070CC0F800C091F804C0D0F800800CF08C
:10085000030C0CFA06FC4CEA080CC0F800C0D1F8F6
:1008600004C0BCF1010F08D0BCF1020F05D0BCF1EF
:10087000110F02D0BCF1120F1FD1D0F808C02CEA22
:10088000070CC0F808C0D1F80CC0D0F808800CFAEA
:1008900006FC4CEA080CC0F808C0D0F804C02CEAEA
:1008A000040CC0F804C0D0F804C00C79C4F30014E0
:1008B00094404CEA040CC0F804C0C468BC43C46053
:1008C0008C68B440C6683443C4604C68E40079D591
:1008D000404C266846F4804626609407270F3E4C1D
:1008E00022F0030C64440AFA07F6D4F808C82CEA8C
:1008F000060CC4F808C8394EB04200E062E001D1ED
:1009000000262DE0364EB04201D1012628E0354EBA
:10091000B04201D1022623E0334EB04201D103267A
:100920001EE0324EB04201D1042619E0304EB042F2
:1009300001D1052614E02F4EB04201D106260FE06A
:100940002D4EB04201D107260AE02C4EB04201D113
:10095000082605E02A4EB04201D1092600E00A2609
:10096000BE40D4F808783E43C4F80868DEF800605A
:1009700074469E43CEF80060154E361D37689F437F
:1009800037604F68FF0302D527681F4327604C6814
:10099000A40302D534681C4334600D4C0834266827
:1009A0009E432660261D37689F4337604F68FF02CD
:1009B00002D527681F4327604C68A40202D534681B
:1009C0001C433460521C102AFFF414AFBDE8F08FB2
:1009D000003C014044380240003001400000024029
:1009E0000004024000080240000C024000100240D7
:1009F0000014024000180240001C02400020024087
:100A0000002402400069084000D0012070470AB16C
:100A100001837047418370470148006870470000B8
:100A2000400000200C4810B5016841F400710160DD
:100A3000016841F480610160016841F480710160E6
:100A40004FF47A5000F068FB032000F033F800F018
:100A500005F8002010BD0000003C0240704700F087
:100A60001F02012191404009800000F1E020C0F800
:100A700000117047F0B40E4B1B680C46C3F3022301
:100A8000C3F10705042D00D90425191D072901D23A
:100A9000002300E0DB1E012606FA05F1491E214075
:100AA00099409E40761E16403143F0BC00F0F0BEE7
:100AB0000CED00E0064900F0070208684FF6FF035E
:100AC000184040EA0220034A1043086070470000C3
:100AD0000CED00E00000FA052DE9F0411348016833
:100AE00041F080510160124F01263E64FFF794FFF0
:100AF00000F57A750F4C03E0FFF78EFFA8420DD288
:100B00006068C003F8D57E64FFF786FF00F57A754C
:100B100007E000BFFFF780FFA84202D30320BDE833
:100B2000F08160688003F5D50020F8E74038024086
:100B300000000E42007000402DE9F047DFF8A09160
:100B400005460E46D9F80000664C00F00F016548D6
:100B5000083406F0FF0841F28837B14243D289F8E1
:100B60000080D9F8001001F00F01B14275D1297849
:100B7000C90724D06968012913D00068022913D05D
:100B80008007002876DA206820F003000843206000
:100B9000FFF742FFC619686801280BD0022813D05E
:100BA0001CE000688003ECE78001EAE7FFF734FF10
:100BB000B0424FD22068C0F381000128F6D15BE03B
:100BC000FFF72AFFB04245D22068C0F38100022817
:100BD000F6D151E0FFF720FFB0423BD2206810F081
:100BE0000C0FF7D148E02978C9073BD06968012983
:100BF00013D00068022913D0800700283ADA206851
:100C000020F0030008432060FFF706FF07446868F0
:100C100001280BD0022813D020E000688003ECE705
:100C20008001EAE7FFF7F8FEB84213D22068C0F36C
:100C300081000128F6D115E0FFF7EEFEB84209D297
:100C40002068C0F381000228F6D10BE0FFF7E4FE34
:100C5000B84203D30320BDE8F0870BE0206810F012
:100C60000C0FF3D189F80080D9F8000000F00F00D4
:100C7000B04201D00120EEE72878800705D5206832
:100C8000A96820F0F000084320602878400705D5C7
:100C90002068E96820F4E0500843206028780007C5
:100CA00006D52068296920F4604040EAC100206030
:100CB00000F01CF84FF47A71B0FBF1F0401EB0F177
:100CC000807F0AD24FF0E0214861074AF02082F885
:100CD000140D00208861072008610020BBE7000098
:100CE000003C0240003802400FE000E000B500F098
:100CF00043F808490968F02292FAA2F201F0F001E3
:100D0000B2FA82F2D140044A515CC84003490860FB
:100D100000BD000008380240402200082C000020DE
:100D200000B5FFF7E3FF074909684FF4E05292FA74
:100D3000A2F201F4E051B2FA82F2D140024A515CCF
:100D4000C84000BD083802404022000800B5FFF747
:100D5000CDFF074909684FF4604292FAA2F201F40C
:100D60006041B2FA82F2D140024A515CC84000BDF3
:100D7000083802404022000830B51D48006810F0D5
:100D80000C011C481AD01C4C042916D0082915D176
:100D90001749091F0A6802F03F030A6802F4800538
:100DA0004FF4800292FAA2F2B2FA82F2D54047F6EC
:100DB000C07204D0B4FBF3F003E0204630BDB0FBBA
:100DC000F3F00B680968134092FAA2F2B2FA82F2C9
:100DD000D34058434FF4403292FAA2F201F440312A
:100DE000B2FA82F2D140491C4900B0FBF1F030BDAB
:100DF000083802400024F40040787D012DE9F84FC6
:100E000004460078DFF8FC92BF4DC0074FF00006A3
:100E100049D0D9F800104846C1F38101012908D012
:100E20000068C0F3810002280AD1281D0068400232
:100E300006D52868800336D56068012874D132E071
:100E4000DFF8C4A20AF1020A8AF80060FFF7E4FDA5
:100E500041F2883700EB070804E000BFFFF7DCFD34
:100E600040457BD228688003F8D420798AF80000B6
:100E70006068012803D0FFF7CFFD074410E0FFF7BB
:100E8000CBFD074404E000BFFFF7C6FDB842E8D23F
:100E900028688003F8D506E0FFF7BEFDB842E0D22F
:100EA00028688003F8D42078984F80074FF0010B12
:100EB00043D5D9F80010484611F00C0F09D000684E
:100EC000C0F3810002280BD18E48001F0068400249
:100ED00006D42868800730D5E0680128AED12CE020
:100EE000E068D8B1C7F800B0FFF796FD00F16408DC
:100EF00004E000BFFFF790FD4045B2D228688007AC
:100F0000F8D52868F82292FAA2F22169B2FA82F2A0
:100F100020F0F8009140084328600EE03E60FFF7A3
:100F20007BFD00F1640805E0EAE000BFFFF774FD17
:100F3000404513D228688007F8D42078000727D5C9
:100F4000DFF8C0A1724861690AF16C0A89B1C0F882
:100F500000B0FFF761FD00F1640805E07EE000BF2E
:100F6000FFF75AFD404579D2DAF800008007F7D53F
:100F70000EE00660FFF750FD00F1640804E000BFDA
:100F8000FFF74AFD404569D2DAF800008007F7D440
:100F90002078400752D55B483830016841F08051D5
:100FA0000160DFF870A1DAF8001041F48071CAF82E
:100FB0000010FFF731FD00F1640803E0FFF72CFD9E
:100FC00040454BD2DAF80000C005F7D5DFF8348190
:100FD00008F1680888F80060FFF71EFD41F2883AC2
:100FE0005044009005E000BFFFF716FD00998842CD
:100FF0007ED2D8F800008007F6D4207A88F8000066
:10100000A068012803D0FFF707FD824412E0FFF734
:1010100003FD824404E000BFFFF7FEFC504567D2A9
:10102000D8F800008007F7D508E000BFFFF7F4FC10
:1010300050455DD2D8F800008007F7D4A069E8B326
:10104000D9F80010C1F38101022959D002283E6667
:1010500005D0FFF7E1FC00F164044CE048E0FFF745
:10106000DBFC00F1640603E0FFF7D6FCB0423FD2A0
:1010700028688001F8D4D4E90710084347F6C07205
:1010800092FAA2F2616AB2FA82F29140A26A4FF039
:10109000FF3303EB52024FF4403393FAA3F3B3FA56
:1010A00083F39A40114308434FF0706292FAA2F220
:1010B000E16AB2FA82F29140084300E01EE040F09B
:1010C00000511048001F0160C7F860B0FFF7A4FC92
:1010D00000F1640404E000BFFFF79EFCA04207D2C9
:1010E00028688001F8D509E0FFF796FCA04202D3FA
:1010F0000320BDE8F88F28688001F5D40020F8E7C8
:101100000120F6E70838024000380240000047425C
:10111000800E47420070004010B5401EB0F1807F45
:1011200001D3012010BD4FF0E02460610F21601752
:1011300000F0AEFB0020A06107202061002010BD60
:10114000704770472DE9F041064600684E498842D5
:1011500075D14D4D307E20354C4C4FF6FF774FF01A
:10116000000802282CD12868800608D404213046C3
:1011700000F039FBE060286840F020001FE028689C
:1011800080067ED50421304600F02DFB2061E16809
:10119000884202D9A0EB010003E004D2A7EB0101D1
:1011A0000844606101E0C4F81480FFF7B9FD61698B
:1011B0004000B0FBF1F02063286820F02000286098
:1011C000307E04282CD12868800508D408213046B8
:1011D00000F009FBA061286840F400701FE0286857
:1011E00080054ED50821304600F0FDFAE061A16986
:1011F000884202D9A0EB010003E004D2A7EB010171
:101200000844206201E0C4F82080FFF789FD216ACC
:101210004000B0FBF1F02063286820F400702860E3
:10122000307E08282DD12868800409D40C2130464E
:1012300000F0D9FA6062286840F4005020E020E015
:10124000286880041DD50C21304600F0CCFAA0623D
:10125000616A884202D9A0EB010003E004D2A7EB47
:1012600001010844E06201E0C4F82C80FFF758FD5A
:10127000E16A4000B0FBF1F02063286820F40050E0
:101280002860BDE8F0810000000400404400002018
:101290002DE9F041044690F838000D46012837D07A
:1012A000012684F83860022084F839007AB3042AD1
:1012B00040D02068082A4FD0D5E90032E968076A93
:1012C00027F480570762D0F81CC0076A2CF4407CD2
:1012D0004CEA022222F4704242EA013127F4204211
:1012E00042EA0332C16102622068C16921F44061AF
:1012F000C1612068C169AA6841EA0221C0F81C10D6
:1013000084F83960002084F83800BDE8F08101E0FD
:101310000220FAE7D5E90012EB68206800F050FCE3
:101320002068816921F00C01816120688169AA68C7
:1013300011430FE0D5E90012EB68206800F080FC53
:101340002068816921F44061816120688169AA680F
:1013500041EA02218161D3E7D5E9003CEA68016AEC
:1013600021F480710162C169076A21F0030141EA39
:101370000C0121F0F00141EA021127F4206242EA57
:101380000322C16102622068C16921F00C01C161C0
:101390002068C169AA681143B0E710B5040003D002
:1013A00094F8390010B104E0012010BD204600F08F
:1013B0000DF8022084F83900211D206800F0DEFAC3
:1013C000012084F83900002010BD0000154800B548
:1013D000016885B041F002010160124810380168CF
:1013E00041F002010160016841F001010160032048
:1013F000022100228DE80700CDE9030169460A4871
:10140000FFF7EEF98020009069460848FFF7E8F9F9
:10141000002205211D20FFF72DFB1D20FFF71FFBDC
:1014200005B000BD40380240000402400000024008
:1014300010B50268044631B1042908D0082915D036
:101440000C2908D116E0D06840F0020002E0D06814
:1014500040F00400D0600122206800F0EFFA20681C
:10146000016841F001010160002010BDD06840F02A
:101470000800EFE7D06840F01000EBE770B50446D5
:10148000006801694FF00005C943890717D4C16896
:10149000C943890713D4016921F0020101610120C8
:1014A0002076206880698007204602D0FFF74AFE38
:1014B00004E000F0A0F8204600F076F925762068D8
:1014C0000169C943490718D4C168C943490714D4FD
:1014D000016921F004010161022020762068806901
:1014E00010F4407F204602D0FFF72CFE04E000F00D
:1014F00082F8204600F058F9257620680169C94332
:10150000090717D4C168C943090713D4016921F039
:101510000801016104202076206880698007204648
:1015200002D0FFF70FFE04E000F065F8204600F05F
:101530003BF9257620680169C943C90618D4C168FA
:10154000C943C90614D4016921F0100101610820C2
:1015500020762068806910F4407F204602D0FFF793
:10156000F1FD04E000F047F8204600F01DF9257673
:1015700020680169C943C9070AD1C168C943C907BD
:1015800006D1016921F001010161204600F02AF92C
:1015900020680169C94309060AD4C168C94309061C
:1015A00006D4016921F0800101612046FFF7C8FDE2
:1015B00020680169C94349060AD4C168C94349067C
:1015C00006D4016921F040010161204600F02DF9A7
:1015D00020680169C94389060CD4C168C9438906DA
:1015E00008D4016921F0200101612046BDE8704066
:1015F000FFF7A7BD70BD704770B5044690F838007E
:101600000D4601280DD0012684F83860022084F8A8
:10161000390042B1042A18D0082A2AD00C2A4DD108
:1016200039E0022070BD206800F014FA206881695A
:1016300041F0080181612068816921F00401816124
:10164000206881692A69114311E0206800F02EFAB0
:101650002068816941F4006181612068816921F419
:1016600080618161206881692A6941EA0221816182
:1016700024E0206800F04CFA2068C16941F00801BC
:10168000C1612068C16921F00401C1612068C1699C
:101690002A69114311E0206800F06AFA2068C169E4
:1016A00041F40061C1612068C16921F48061C161B8
:1016B0002068C1692A6941EA0221C16184F8396060
:1016C000002084F8380070BD10B5040003D094F8F1
:1016D000390010B104E0012010BD204600F00CF8E4
:1016E000022084F83900211D206800F047F901200C
:1016F00084F83900002010BD30B52549234D046819
:10170000234B14390220032285B0AC4210D11C684F
:1017100044F002041C600B6843F004030B60CDE945
:1017200002020190C020009069460492194815E019
:10173000194DAC4216D1164B1B1F1C6844F0040413
:101740001C600B6843F008030B60CDE902020190B6
:1017500004904FF44050009069461048FFF740F85D
:1017600005B030BD0E4DAC42FAD11C6844F40034D3
:101770001C600B6843F020030B604021CDE9001092
:10178000CDE90202694607480492E7E700040140F8
:10179000443802400008024000080040000C0240AB
:1017A00000440140001402407047000010B5044698
:1017B0000068012200F042F908492068884202D0FE
:1017C0000749884203D1416C41F4004141642068DB
:1017D000016841F001010160002010BD00000140DE
:1017E00000040140704790F838300022012B0AD0E5
:1017F000012380F8383041B1042909D008290AD0E2
:101800000C290DD10AE00220704701684A6B07E0FD
:1018100001688A6B04E00168CA6B01E001680A6C28
:10182000002180F8381010467047704710B504004A
:1018300003D094F8390010B104E0012010BD204617
:1018400000F022F8022084F839002068C16821F4F1
:101850000051C160204600F009FA2068016921F4B6
:10186000904101612068416921F02A0141612068AD
:10187000C16841F40051C160002084F83A000120A1
:1018800084F83900002010BD7047FEE7FEE770477E
:101890000907090E002806DA00F00F0000F1E02029
:1018A00080F8141D704700F1E02080F800147047A4
:1018B00000F040BC174810B5016892B041F080516B
:1018C00001601548016841F4404101600120009029
:1018D000019002248005CDE90640192008904FF4BC
:1018E000B470CDE9090407200B906846FFF786FA2B
:1018F000FFF7F2F80F20CDE90C0400200E904FF412
:10190000A0500F90E002109005210CA8FFF714F9E9
:1019100012B010BD4038024000700040104801680D
:1019200041F4700101600F48016841F0010101605C
:101930000C4A00210832116002680B4B1A40026009
:10194000031D0A4A1A60026822F4802202600548D8
:101950000C30016002495806803908607047000069
:1019600088ED00E000380240FFFFF6FE1030002452
:101970000148FFF783BD00001C020020F0B502689B
:10198000234B244D244E254F254C4FF0804C98423C
:1019900009D0604507D0A84205D0B04203D0B84274
:1019A00001D0A04204D122F0700E4A6842EA0E0231
:1019B00098421BD0604519D0A84217D0B04215D02C
:1019C000B84213D0A04211D0164DA8420ED0164DE9
:1019D000A8420BD0154DA84208D0154DA84205D0FD
:1019E000144DA84202D0144DA84203D122F44075F0
:1019F000CA682A4302608A68C2620A6882629842A0
:101A000001D0A04201D10969016301214161F0BD0A
:101A1000000001400004004000080040000C0040AD
:101A200000040140004001400044014000480140E2
:101A300000180040001C00400020004010B50123A9
:101A4000046A8B409C430462036A8A401343036226
:101A500010BD000030B5026A22F001020262026A83
:101A6000436884690D6824F07304254322F002045E
:101A70008A6822430B4CA04202D00B4CA0420BD1EF
:101A800022F00804CA6823F4407322434C6922F010
:101A900004021C438B6923434360856149684163A9
:101AA000026230BD000001400004014030B5026A0E
:101AB00022F010020262026A436884690D6824F40D
:101AC000E64444EA05248D6822F0200242EA051229
:101AD0000D4DA84202D00D4DA8420ED1CD6822F086
:101AE000800242EA05124D6923F4406343EA85030C
:101AF0008D6922F0400243EA8503436084614968AE
:101B00008163026230BD000000000140000401401A
:101B100030B5026A22F480720262036A4268C469C4
:101B200023F4007324F073050C682C438D6843EA9A
:101B300005230D4DA84202D00C4DA8420ED1CD6810
:101B400023F4006343EA05234D6922F4405242EA3C
:101B500005128D6923F4806342EA05124260C46174
:101B60004968C163036230BD0000014000040140C8
:101B700030B5026A22F480520262046A4268C36984
:101B80000D6823F4E64343EA05238D6824F40054EA
:101B900044EA0534084DA84202D0084DA84204D1B9
:101BA0004D6922F4804242EA85124260C36149686D
:101BB0000164046230BD00000000014000040140E7
:101BC00070B5046A24F0010404628469056A154E44
:101BD000B04214D0B0F1804F11D0134EB0420ED0AD
:101BE000124EB0420BD0124EB04208D0114EB0424D
:101BF00005D0114EB04202D0104EB04203D124F0B5
:101C00000304144303E024F0030242F0010424F02F
:101C1000F00242EA031325F00A020A4383610262DA
:101C200070BD0000000001400004004000080040BA
:101C3000000C00400004014000400140001800403A
:101C400030B5046A24F0100404628569046A25F43E
:101C5000407545EA022222F4704242EA033224F03F
:101C6000A00343EA01118261016230BD2DE9F04118
:101C700001680446086920F44052E0681043086196
:101C80002268D06849F20C6188432369A168E5693C
:101C9000194363692B4319430143D16021684869A3
:101CA00020F44072A06910434861E269642632253D
:101CB000B2F5004F49494A4822681DD0824201D0FE
:101CC0008A426AD1FFF742F800EBC00101EB001035
:101CD0006168B0468900B0FBF1F1B1FBF8F6FFF79F
:101CE00035F800EBC00101EB001061688900B0FB22
:101CF000F1F7FFF72BF869E0824201D08A4219D14F
:101D0000FFF724F800EBC00101EB00106168B0465A
:101D10004900B0FBF1F1B1FBF8F6FFF717F800EB63
:101D2000C00101EB001061684900B0FBF1F7FFF75B
:101D30000DF818E0FEF7F4FF00EBC00101EB001016
:101D40006168B0464900B0FBF1F1B1FBF8F6FEF76F
:101D5000E7FF00EBC00101EB001061684900B0FB38
:101D6000F1F7FEF7DDFF00EBC00101EB0010616849
:101D70005FEA4101B0FBF1F1B1FBF8F06FF018013F
:101D8000484307EB800005EB0011B1FBF8F0216838
:101D900066F31F108860BDE8F081FEF7C1FF00EB1D
:101DA000C00101EB00106168B0468900B0FBF1F1A1
:101DB000B1FBF8F6FEF7B4FF00EBC00101EB001039
:101DC00061688900B0FBF1F7FEF7AAFF00EBC001E4
:101DD00001EB001061688900CCE7000000140140AD
:101DE00000100140FEE702E008C8121F08C1002AE7
:101DF000FAD170477047002001E001C1121F002A8C
:101E0000FBD1704786B0FEF70DFEFFF753FDFEF7DE
:101E1000E1FA934EDFF84CA2DFF84C923168934818
:101E2000B1FBFAF1C9F808100068904940F00200CF
:101E3000086004204FF00108CDE9000800240320C9
:101E4000CDE9024069468A48FEF7CAFC0122042116
:101E50008748FEF7DCFD87484FF0600B44F62065AD
:101E600084600461C0E900B5A0F58070824901601A
:101E700049465F468968C0E90354C0E90114FFF789
:101E800023FC7C490022A1F58070FFF7B5FB79495E
:101E90000422A1F58070FFF7AFFB764877491C302C
:101EA00084600461C0E90075E038016049468968D2
:101EB000C0E90354C0E90114FFF706FC6D49002294
:101EC0001C31A1F1E000FFF797FB6A4904221C31A5
:101ED000A1F1E000FFF790FBFEF716FB31684846E2
:101EE000B1FBFAF1491E816062484FF6FF758838F0
:101EF000634AC0E903548460C0E90021FFF74DFA4A
:101F000018B10220FEF7E2FAFEE75A4847461038B9
:101F10000146C0E900488460C46000227838FFF7B9
:101F2000B7F9544904221039A1F17800FFF7B0F94C
:101F3000504908221039A1F17800FFF7A9F94D495D
:101F40000C221039A1F17800FFF7A2F949480421C9
:101F50008838FFF76DFA474808218838FFF768FA94
:101F600044480C218838FFF763FA46493068464AEE
:101F7000B0FBF1F13F48491E4C38C9F80810C0E9E0
:101F800003548460C0E90021FFF79EFB3948022119
:101F90003830002284600461C0E900B10146843811
:101FA000FFF72AFB334800214C38FFF7FFFB31488D
:101FB00036495430C0E9001484600461846144628D
:101FC0008462C4620463C460C0E907474461FEF7E9
:101FD00061FB2F480B210725C0E90017C0E9025417
:101FE0000146CC38FEF7C6FA29482A498838C0E9A4
:101FF000001484600461846144628462C462046386
:10200000C460C0E907474461FEF744FB20480E2145
:102010001030C0E90017C0E9025401469838FEF7B5
:10202000A9FA1B481C494438C0E9001484600461C3
:10203000846144628462C4620463C460C0E9074787
:102040004461FEF727FB12480F212030C0E900173A
:10205000C0E9025401466438FEF78CFAFEE700003E
:102060002C00002080841E004400002030380240F4
:1020700000040240A40200200004014000080040C7
:1020800000040040360004000044014000220140EA
:10209000C40300200021014000200140D0E90112CA
:1020A0008A60D0E90112516001694A68824201D117
:1020B00082684A60002202610868401E086070471A
:1020C00042684A6093688B609368596091600861C8
:1020D0000168491C01607047144810B5816911B14D
:1020E0000121016210BD00210162114903E0D2B15A
:1020F0000269521E0261026902EB820251F822203B
:10210000002A0269F3D002EB820201EB820101F1A5
:1021100008034A6852684A609A4201D152684A608C
:10212000D168016010BDFEF795F8FEE78000002041
:10213000F403002010B5FEF78DF800F00DF818B18B
:1021400004494FF080500860BDE810400020FEF7C1
:1021500088B8000004ED00E02DE9F047304C00267F
:10216000A06940B1E069401CE061206A00B101262D
:102170003046BDE8F087E068401CE060E7684FF05B
:10218000FF39A7B9206B006810B1FEF763F8FEE7CE
:10219000206B616B21636063606A401C6062206B2E
:1021A0000068E8B1206BC068C0684068E062E06A1F
:1021B000DFF87080874209D3206B006890B1206BF4
:1021C000C068C568686887420ED2E0622068C06A4D
:1021D00000EB800158F821000128C6D90126C4E788
:1021E0004846E3E74846F0E7281DFFF757FFA86A8F
:1021F00018B105F11800FFF751FFE86A216988421C
:1022000000D9206100EB800108EB8100291DFFF758
:1022100057FFE86A2168C96A8842CDD30126CBE717
:1022200080000020F40300200004004000080002A9
:102230000700080007000800000100020004000871
:10224000000000000102030401020304060708095C
:102250007022000800000020B8000000E61D000801
:1022600028230008B800002090080000F61D000890
:10227000000000000048004000140140000402403B
:1022800000180240000402400018024000200240F2
:102290000020024000200240002002400024F40000
:1022A0000000000000000000010203040607080906
:1022B0000000000003030000000000000000000018
:1022C000000000000000000000000000000000000E
:1022D00000000000000000000000000000000000FE
:1022E00000000000000000000000000000000000EE
:1022F00000000000000000000000000000000000DE
:1023000000000000000000000000000000000000CD
:10231000000000000000000000000000FFFFFFFFC1
:082320000000000000000000B5
:04000005080001AD41
:00000001FF
